{
  "transactions": [
    {
      "hash": "0x098ff9a2d03fcc802bbd8e9eea62a442d12241d46d774bd55f831b6c9c656022",
      "transactionType": "CALL",
      "contractName": null,
      "contractAddress": "0x5d67d0efd22ab2aa718fa34a9b63330862b6482c",
      "function": "addToWhitelist(address)",
      "arguments": [
        "0xDcC7cEd9a0af57bDe46c5Fb5dcE0163c23Fc2e86"
      ],
      "transaction": {
        "from": "0xdcc7ced9a0af57bde46c5fb5dce0163c23fc2e86",
        "to": "0x5d67d0efd22ab2aa718fa34a9b63330862b6482c",
        "gas": "0x14760",
        "value": "0x0",
        "input": "0xe43252d7000000000000000000000000dcc7ced9a0af57bde46c5fb5dce0163c23fc2e86",
        "nonce": "0x4",
        "chainId": "0xaa36a7"
      },
      "additionalContracts": [],
      "isFixedGasLimit": false
    }
  ],
  "receipts": [
    {
      "status": "0x1",
      "cumulativeGasUsed": "0xf0370d",
      "logs": [
        {
          "address": "0x5d67d0efd22ab2aa718fa34a9b63330862b6482c",
          "topics": [
            "0xa54714518c5d275fdcd3d2a461e4858e4e8cb04fb93cd0bca9d6d34115f26440",
            "0x000000000000000000000000dcc7ced9a0af57bde46c5fb5dce0163c23fc2e86"
          ],
          "data": "0x0000000000000000000000000000000000000000000000000000000000000001",
          "blockHash": "0x358fbe7f02dc3a63cce6056612de7017f0dde9e132e5ea6057da7f73b698d699",
          "blockNumber": "0x9440fd",
          "blockTimestamp": "0x6927eef8",
          "transactionHash": "0x098ff9a2d03fcc802bbd8e9eea62a442d12241d46d774bd55f831b6c9c656022",
          "transactionIndex": "0x2b",
          "logIndex": "0x60",
          "removed": false
        }
      ],
      "logsBloom": "0x00000000000000000800000000000000000000000000000000000000000000000000000000000000000000000000000000000000000000800000000000000000000000000000000000000000000000000000000080000000000000000000000000000000000000000000000000000000000200000000000000000000000000000000000000000000000000000000000000000000000000000000000020000000000000000000000000000000000000000000000000000000000000000000000000000000000000000000000000000000200000000000000000000000000000020000000000000000800000000000000000000000000000000000000080000000",
      "type": "0x2",
      "transactionHash": "0x098ff9a2d03fcc802bbd8e9eea62a442d12241d46d774bd55f831b6c9c656022",
      "transactionIndex": "0x2b",
      "blockHash": "0x358fbe7f02dc3a63cce6056612de7017f0dde9e132e5ea6057da7f73b698d699",
      "blockNumber": "0x9440fd",
      "gasUsed": "0xed04",
      "effectiveGasPrice": "0x49ab860b",
      "from": "0xdcc7ced9a0af57bde46c5fb5dce0163c23fc2e86",
      "to": "0x5d67d0efd22ab2aa718fa34a9b63330862b6482c",
      "contractAddress": null
    }
  ],
  "libraries": [],
  "pending": [],
  "returns": {},
  "timestamp": 1764224760678,
  "chain": 11155111,
  "commit": "b11fa1e"
}