{
  "transactions": [
    {
      "hash": "0x0876eae226e2c90017896682293839044c87afb88cbdf89e9ffe8b279b79d9a6",
      "transactionType": "CALL",
      "contractName": null,
      "contractAddress": "0x5d67d0efd22ab2aa718fa34a9b63330862b6482c",
      "function": "addToWhitelist(address)",
      "arguments": [
        "0x4466A699fdd1a725722c014F136cfb16e1ec4a16"
      ],
      "transaction": {
        "from": "0xdcc7ced9a0af57bde46c5fb5dce0163c23fc2e86",
        "to": "0x5d67d0efd22ab2aa718fa34a9b63330862b6482c",
        "gas": "0x14760",
        "value": "0x0",
        "input": "0xe43252d70000000000000000000000004466a699fdd1a725722c014f136cfb16e1ec4a16",
        "nonce": "0x10",
        "chainId": "0x38"
      },
      "additionalContracts": [],
      "isFixedGasLimit": false
    }
  ],
  "receipts": [
    {
      "status": "0x1",
      "cumulativeGasUsed": "0x862537",
      "logs": [
        {
          "address": "0x5d67d0efd22ab2aa718fa34a9b63330862b6482c",
          "topics": [
            "0xa54714518c5d275fdcd3d2a461e4858e4e8cb04fb93cd0bca9d6d34115f26440",
            "0x0000000000000000000000004466a699fdd1a725722c014f136cfb16e1ec4a16"
          ],
          "data": "0x0000000000000000000000000000000000000000000000000000000000000001",
          "blockHash": "0xdccb1dfcdbae483cdb11ca20a8d462c7114bf92b3440a2064932fd75b3af9ac7",
          "blockNumber": "0x43d45de",
          "blockTimestamp": "0x69390717",
          "transactionHash": "0x0876eae226e2c90017896682293839044c87afb88cbdf89e9ffe8b279b79d9a6",
          "transactionIndex": "0x3a",
          "logIndex": "0x106",
          "removed": false
        }
      ],
      "logsBloom": "0x00000000000000000800000000000000002000000000000000000000000000000000000000000000000000000000000000000000000000800000000000000000000000000000000000000000000000000000000000000000000000000000000400000000000000000000000000000000000200000000000000000000000000000000000000000000000000000000000000000000000000000000000020000000000000000000000000000000000000000000000000000000000000000000000000000000000000000000000000000000200000000000000000000000000000000000000000000000800000000000000000000000000000000000000020000000",
      "type": "0x2",
      "transactionHash": "0x0876eae226e2c90017896682293839044c87afb88cbdf89e9ffe8b279b79d9a6",
      "transactionIndex": "0x3a",
      "blockHash": "0xdccb1dfcdbae483cdb11ca20a8d462c7114bf92b3440a2064932fd75b3af9ac7",
      "blockNumber": "0x43d45de",
      "gasUsed": "0xed04",
      "effectiveGasPrice": "0x2faf080",
      "from": "0xdcc7ced9a0af57bde46c5fb5dce0163c23fc2e86",
      "to": "0x5d67d0efd22ab2aa718fa34a9b63330862b6482c",
      "contractAddress": null
    }
  ],
  "libraries": [],
  "pending": [],
  "returns": {},
  "timestamp": 1765345048207,
  "chain": 56,
  "commit": "9e0228e"
}