{
  "transactions": [
    {
      "hash": "0x5eb775e7866475c2f1aca7661b0352bc0b7d38bff9079ee88f2b0480bb3cbdec",
      "transactionType": "CALL",
      "contractName": null,
      "contractAddress": "0x5d67d0efd22ab2aa718fa34a9b63330862b6482c",
      "function": "addToWhitelist(address)",
      "arguments": [
        "0x82Ba4373150Dec8570D78AcE885eD7CC1Bb5eEa9"
      ],
      "transaction": {
        "from": "0xdcc7ced9a0af57bde46c5fb5dce0163c23fc2e86",
        "to": "0x5d67d0efd22ab2aa718fa34a9b63330862b6482c",
        "gas": "0x14760",
        "value": "0x0",
        "input": "0xe43252d700000000000000000000000082ba4373150dec8570d78ace885ed7cc1bb5eea9",
        "nonce": "0xb39",
        "chainId": "0x38"
      },
      "additionalContracts": [],
      "isFixedGasLimit": false
    }
  ],
  "receipts": [
    {
      "status": "0x1",
      "cumulativeGasUsed": "0xeda472",
      "logs": [
        {
          "address": "0x5d67d0efd22ab2aa718fa34a9b63330862b6482c",
          "topics": [
            "0xa54714518c5d275fdcd3d2a461e4858e4e8cb04fb93cd0bca9d6d34115f26440",
            "0x00000000000000000000000082ba4373150dec8570d78ace885ed7cc1bb5eea9"
          ],
          "data": "0x0000000000000000000000000000000000000000000000000000000000000001",
          "blockHash": "0xa0340cefd6363cd675356d11d0ba01297b1da5ce3685f52dc801943aba6d09e2",
          "blockNumber": "0x4461f4f",
          "blockTimestamp": "0x693faad2",
          "transactionHash": "0x5eb775e7866475c2f1aca7661b0352bc0b7d38bff9079ee88f2b0480bb3cbdec",
          "transactionIndex": "0x59",
          "logIndex": "0x1b3",
          "removed": false
        }
      ],
      "logsBloom": "0x00000000000000000800000000000000000000000000000000000000000000000000000000000000000000000000000000000000000000800000000000000000000000000000000000000000000000000000000000000000000000000000000000000000000000000000000000000000000200000000000000000000000000002000000000000000000000000000000000000000000000000000000020000000000000000000000000000000000000000000000000000000000000000000000000000010000000000000000000000000200000000000000000000000000000000001000000000000800000000000000000000000000000000000000000000000",
      "type": "0x2",
      "transactionHash": "0x5eb775e7866475c2f1aca7661b0352bc0b7d38bff9079ee88f2b0480bb3cbdec",
      "transactionIndex": "0x59",
      "blockHash": "0xa0340cefd6363cd675356d11d0ba01297b1da5ce3685f52dc801943aba6d09e2",
      "blockNumber": "0x4461f4f",
      "gasUsed": "0xed04",
      "effectiveGasPrice": "0x2faf080",
      "from": "0xdcc7ced9a0af57bde46c5fb5dce0163c23fc2e86",
      "to": "0x5d67d0efd22ab2aa718fa34a9b63330862b6482c",
      "contractAddress": null
    }
  ],
  "libraries": [],
  "pending": [],
  "returns": {},
  "timestamp": 1765780179246,
  "chain": 56,
  "commit": "9e0228e"
}