{
  "transactions": [
    {
      "hash": "0x67508aa6e576cd3ef571d036866e5eeb136f8e863c4b69134126d67dc9c6eb52",
      "transactionType": "CALL",
      "contractName": null,
      "contractAddress": "0x5d67d0efd22ab2aa718fa34a9b63330862b6482c",
      "function": "addToWhitelist(address)",
      "arguments": [
        "0x9fAA76d6059b438Eb75b39383b38a3ad563FFd7B"
      ],
      "transaction": {
        "from": "0xdcc7ced9a0af57bde46c5fb5dce0163c23fc2e86",
        "to": "0x5d67d0efd22ab2aa718fa34a9b63330862b6482c",
        "gas": "0x14760",
        "value": "0x0",
        "input": "0xe43252d70000000000000000000000009faa76d6059b438eb75b39383b38a3ad563ffd7b",
        "nonce": "0x12",
        "chainId": "0x38"
      },
      "additionalContracts": [],
      "isFixedGasLimit": false
    }
  ],
  "receipts": [
    {
      "status": "0x1",
      "cumulativeGasUsed": "0xe14de8",
      "logs": [
        {
          "address": "0x5d67d0efd22ab2aa718fa34a9b63330862b6482c",
          "topics": [
            "0xa54714518c5d275fdcd3d2a461e4858e4e8cb04fb93cd0bca9d6d34115f26440",
            "0x0000000000000000000000009faa76d6059b438eb75b39383b38a3ad563ffd7b"
          ],
          "data": "0x0000000000000000000000000000000000000000000000000000000000000001",
          "blockHash": "0x6a6eef7c8bf5a1475138a189ad8c2d10cfb24dc02692714ab9cb1e1f846677c1",
          "blockNumber": "0x442e59c",
          "blockTimestamp": "0x693d3f37",
          "transactionHash": "0x67508aa6e576cd3ef571d036866e5eeb136f8e863c4b69134126d67dc9c6eb52",
          "transactionIndex": "0x66",
          "logIndex": "0x1e8",
          "removed": false
        }
      ],
      "logsBloom": "0x00000000000000000800000000000000000000000000000000000000000000000000000000000000000000000000000000000000000400800000000000000000000000001000000000000000000000000000000000000000000000000000000000000000000000000000000000000000000200000000000000000000000000000000000000000000000000000000000000000000000000000000000020000000000000000000000000000000000000000000000000000000000000000000000000000000000000100000000000000000200000000000000000000000000000000000000000000000800000000000000000000000000000000000000000000000",
      "type": "0x2",
      "transactionHash": "0x67508aa6e576cd3ef571d036866e5eeb136f8e863c4b69134126d67dc9c6eb52",
      "transactionIndex": "0x66",
      "blockHash": "0x6a6eef7c8bf5a1475138a189ad8c2d10cfb24dc02692714ab9cb1e1f846677c1",
      "blockNumber": "0x442e59c",
      "gasUsed": "0xed04",
      "effectiveGasPrice": "0x2faf080",
      "from": "0xdcc7ced9a0af57bde46c5fb5dce0163c23fc2e86",
      "to": "0x5d67d0efd22ab2aa718fa34a9b63330862b6482c",
      "contractAddress": null
    }
  ],
  "libraries": [],
  "pending": [],
  "returns": {},
  "timestamp": 1765621560078,
  "chain": 56,
  "commit": "9e0228e"
}