{
  "transactions": [
    {
      "hash": "0x5c8975cb2f37b8ea9afe64e94552e8f65508a14ac4b3275fe3d379f15b60c19c",
      "transactionType": "CALL",
      "contractName": null,
      "contractAddress": "0x3d9bdbd24d202faaae61cedd7e5a70a9a62d0879",
      "function": "addToWhitelist(address)",
      "arguments": [
        "0x70ef22303a0446A620a1f66169aE5E08E1107aCe"
      ],
      "transaction": {
        "from": "0xdcc7ced9a0af57bde46c5fb5dce0163c23fc2e86",
        "to": "0x3d9bdbd24d202faaae61cedd7e5a70a9a62d0879",
        "gas": "0x14760",
        "value": "0x0",
        "input": "0xe43252d700000000000000000000000070ef22303a0446a620a1f66169ae5e08e1107ace",
        "nonce": "0x23ac",
        "chainId": "0x38"
      },
      "additionalContracts": [],
      "isFixedGasLimit": false
    }
  ],
  "receipts": [
    {
      "status": "0x1",
      "cumulativeGasUsed": "0x11598e8",
      "logs": [
        {
          "address": "0x3d9bdbd24d202faaae61cedd7e5a70a9a62d0879",
          "topics": [
            "0xa54714518c5d275fdcd3d2a461e4858e4e8cb04fb93cd0bca9d6d34115f26440",
            "0x00000000000000000000000070ef22303a0446a620a1f66169ae5e08e1107ace"
          ],
          "data": "0x0000000000000000000000000000000000000000000000000000000000000001",
          "blockHash": "0x5c3e51c6c596625d553a374b4dd293e30ce9e8b1b1f2361017c86af4bd3713b8",
          "blockNumber": "0x45f0ff6",
          "blockTimestamp": "0x69526069",
          "transactionHash": "0x5c8975cb2f37b8ea9afe64e94552e8f65508a14ac4b3275fe3d379f15b60c19c",
          "transactionIndex": "0x75",
          "logIndex": "0x1c6",
          "removed": false
        }
      ],
      "logsBloom": "0x00000000000000000000000000000000000000000000000000000000000000000000000000000000000000000000000000000000000000800000000000000000000000000000000000000000000000000000000000000000000000000000000000000000000000000000000000000000000200000000000000000000000000000000000000000000000004000000000000000001000000000000000000000000000000000000000000000000000000000000000000004000000000000000000000000000000000000000000000800000000000000000000040000000000000000000000000000000800000000000000000000000000000800000000000000000",
      "type": "0x2",
      "transactionHash": "0x5c8975cb2f37b8ea9afe64e94552e8f65508a14ac4b3275fe3d379f15b60c19c",
      "transactionIndex": "0x75",
      "blockHash": "0x5c3e51c6c596625d553a374b4dd293e30ce9e8b1b1f2361017c86af4bd3713b8",
      "blockNumber": "0x45f0ff6",
      "gasUsed": "0xed04",
      "effectiveGasPrice": "0x2faf080",
      "from": "0xdcc7ced9a0af57bde46c5fb5dce0163c23fc2e86",
      "to": "0x3d9bdbd24d202faaae61cedd7e5a70a9a62d0879",
      "contractAddress": null
    }
  ],
  "libraries": [],
  "pending": [],
  "returns": {},
  "timestamp": 1767006315976,
  "chain": 56,
  "commit": "9e7fe97"
}