{
  "transactions": [
    {
      "hash": "0xac925f73f7d58417fc2497b2f00de1e3659bbf035ad17d9d62a9f201ddd026b4",
      "transactionType": "CALL",
      "contractName": null,
      "contractAddress": "0x5d67d0efd22ab2aa718fa34a9b63330862b6482c",
      "function": "addToWhitelist(address)",
      "arguments": [
        "0x70ef22303a0446A620a1f66169aE5E08E1107aCe"
      ],
      "transaction": {
        "from": "0xdcc7ced9a0af57bde46c5fb5dce0163c23fc2e86",
        "to": "0x5d67d0efd22ab2aa718fa34a9b63330862b6482c",
        "gas": "0x14760",
        "value": "0x0",
        "input": "0xe43252d700000000000000000000000070ef22303a0446a620a1f66169ae5e08e1107ace",
        "nonce": "0x4",
        "chainId": "0x38"
      },
      "additionalContracts": [],
      "isFixedGasLimit": false
    }
  ],
  "receipts": [
    {
      "status": "0x1",
      "cumulativeGasUsed": "0x17ec28c",
      "logs": [
        {
          "address": "0x5d67d0efd22ab2aa718fa34a9b63330862b6482c",
          "topics": [
            "0xa54714518c5d275fdcd3d2a461e4858e4e8cb04fb93cd0bca9d6d34115f26440",
            "0x00000000000000000000000070ef22303a0446a620a1f66169ae5e08e1107ace"
          ],
          "data": "0x0000000000000000000000000000000000000000000000000000000000000001",
          "blockHash": "0x1723209b1ce561b06bc95af9a5ed36b8130a0c35c8e2a94f35b0385a7122b008",
          "blockNumber": "0x423090b",
          "blockTimestamp": "0x69255823",
          "transactionHash": "0xac925f73f7d58417fc2497b2f00de1e3659bbf035ad17d9d62a9f201ddd026b4",
          "transactionIndex": "0xab",
          "logIndex": "0x3da",
          "removed": false
        }
      ],
      "logsBloom": "0x00000000000000000800000000000000000000000000000000000000000000000000000000000000000000000000000000000000000000800000000000000000000000000000000000000000000000000000000000000000000000000000000000000000000000000000000000000000000200000000000000000000000000000000000000000000000000000000000000000001000000000000000020000000000000000000000000000000000000000000000000004000000000000000000000000000000000000000000000000000200000000000000040000000000000000000000000000000800000000000000000000000000000000000000000000000",
      "type": "0x2",
      "transactionHash": "0xac925f73f7d58417fc2497b2f00de1e3659bbf035ad17d9d62a9f201ddd026b4",
      "transactionIndex": "0xab",
      "blockHash": "0x1723209b1ce561b06bc95af9a5ed36b8130a0c35c8e2a94f35b0385a7122b008",
      "blockNumber": "0x423090b",
      "gasUsed": "0xed04",
      "effectiveGasPrice": "0x2faf080",
      "from": "0xdcc7ced9a0af57bde46c5fb5dce0163c23fc2e86",
      "to": "0x5d67d0efd22ab2aa718fa34a9b63330862b6482c",
      "contractAddress": null
    }
  ],
  "libraries": [],
  "pending": [],
  "returns": {},
  "timestamp": 1764055075020,
  "chain": 56,
  "commit": "7531f08"
}