{
  "transactions": [
    {
      "hash": "0x96f73f01fa7a7d1910d110977b09c71a8d7689c18e9d94db6bb07288cb6be5e0",
      "transactionType": "CALL",
      "contractName": null,
      "contractAddress": "0x5d67d0efd22ab2aa718fa34a9b63330862b6482c",
      "function": "addToWhitelist(address)",
      "arguments": [
        "0xB8ac0b0b9422718A382786d7b237b3011ae99F4b"
      ],
      "transaction": {
        "from": "0xdcc7ced9a0af57bde46c5fb5dce0163c23fc2e86",
        "to": "0x5d67d0efd22ab2aa718fa34a9b63330862b6482c",
        "gas": "0x14760",
        "value": "0x0",
        "input": "0xe43252d7000000000000000000000000b8ac0b0b9422718a382786d7b237b3011ae99f4b",
        "nonce": "0x5",
        "chainId": "0x38"
      },
      "additionalContracts": [],
      "isFixedGasLimit": false
    }
  ],
  "receipts": [
    {
      "status": "0x1",
      "cumulativeGasUsed": "0x193ed73",
      "logs": [
        {
          "address": "0x5d67d0efd22ab2aa718fa34a9b63330862b6482c",
          "topics": [
            "0xa54714518c5d275fdcd3d2a461e4858e4e8cb04fb93cd0bca9d6d34115f26440",
            "0x000000000000000000000000b8ac0b0b9422718a382786d7b237b3011ae99f4b"
          ],
          "data": "0x0000000000000000000000000000000000000000000000000000000000000001",
          "blockHash": "0x63f2aaa66858271a5c1b526e5a59a101071c6cbf9958ecbfb29dc68ad96c619a",
          "blockNumber": "0x42328d8",
          "blockTimestamp": "0x69256ffc",
          "transactionHash": "0x96f73f01fa7a7d1910d110977b09c71a8d7689c18e9d94db6bb07288cb6be5e0",
          "transactionIndex": "0x8f",
          "logIndex": "0x4e0",
          "removed": false
        }
      ],
      "logsBloom": "0x00000000000000000800000000000000000000000000000000000000000000000000000000000000000000000000000000000000000000800000000000000000000000000000000000000000000000000000000000000000000000000000000000000000000000000020000000000000000200000000000000000000000000000000000000000000000000000000000000000000000000000000000020000000000000000000000000000000000000000000000000000000000000000000000000000000000000000000000000400000200000000000000000000000000020000000000000000000800000000000000000000000000000000000000000000000",
      "type": "0x2",
      "transactionHash": "0x96f73f01fa7a7d1910d110977b09c71a8d7689c18e9d94db6bb07288cb6be5e0",
      "transactionIndex": "0x8f",
      "blockHash": "0x63f2aaa66858271a5c1b526e5a59a101071c6cbf9958ecbfb29dc68ad96c619a",
      "blockNumber": "0x42328d8",
      "gasUsed": "0xed04",
      "effectiveGasPrice": "0x2faf080",
      "from": "0xdcc7ced9a0af57bde46c5fb5dce0163c23fc2e86",
      "to": "0x5d67d0efd22ab2aa718fa34a9b63330862b6482c",
      "contractAddress": null
    }
  ],
  "libraries": [],
  "pending": [],
  "returns": {},
  "timestamp": 1764061181564,
  "chain": 56,
  "commit": "7531f08"
}