{
  "transactions": [
    {
      "hash": "0xaa7bb3ba418c25ee22e21738992340df2e7f13d2fbcc75735105ef521be5c1f8",
      "transactionType": "CALL",
      "contractName": null,
      "contractAddress": "0xf6afe3b3eecf382706c3c262289997f95b4c0ca2",
      "function": "claim(uint256,uint256)",
      "arguments": [
        "0",
        "0"
      ],
      "transaction": {
        "from": "0xdcc7ced9a0af57bde46c5fb5dce0163c23fc2e86",
        "to": "0xf6afe3b3eecf382706c3c262289997f95b4c0ca2",
        "gas": "0x2ecf6",
        "value": "0x0",
        "input": "0xc349026300000000000000000000000000000000000000000000000000000000000000000000000000000000000000000000000000000000000000000000000000000000",
        "nonce": "0x3a",
        "chainId": "0xaa36a7"
      },
      "additionalContracts": [],
      "isFixedGasLimit": false
    }
  ],
  "receipts": [
    {
      "status": "0x1",
      "cumulativeGasUsed": "0x9b6d01",
      "logs": [
        {
          "address": "0xf6afe3b3eecf382706c3c262289997f95b4c0ca2",
          "topics": [
            "0xe49649ad7d04a14b0d2a43dae89f207c0822143ff6f88a6480e88907e4e5c548",
            "0x000000000000000000000000dcc7ced9a0af57bde46c5fb5dce0163c23fc2e86",
            "0x0000000000000000000000000000000000000000000000000de0b6b3a7640000",
            "0x0000000000000000000000000000000000000000000000000000000000000002"
          ],
          "data": "0x0000000000000000000000000000000000000000000000000000000000000002",
          "blockHash": "0x680b2a6ac62a8156e541b53ce90456bb2196cd0de3157e6cfd99265d27494acd",
          "blockNumber": "0x985704",
          "blockTimestamp": "0x695ba958",
          "transactionHash": "0xaa7bb3ba418c25ee22e21738992340df2e7f13d2fbcc75735105ef521be5c1f8",
          "transactionIndex": "0x34",
          "logIndex": "0x35",
          "removed": false
        },
        {
          "address": "0x5d67d0efd22ab2aa718fa34a9b63330862b6482c",
          "topics": [
            "0xddf252ad1be2c89b69c2b068fc378daa952ba7f163c4a11628f55a4df523b3ef",
            "0x000000000000000000000000f6afe3b3eecf382706c3c262289997f95b4c0ca2",
            "0x000000000000000000000000dcc7ced9a0af57bde46c5fb5dce0163c23fc2e86"
          ],
          "data": "0x0000000000000000000000000000000000000000000000000de0b6b3a7640000",
          "blockHash": "0x680b2a6ac62a8156e541b53ce90456bb2196cd0de3157e6cfd99265d27494acd",
          "blockNumber": "0x985704",
          "blockTimestamp": "0x695ba958",
          "transactionHash": "0xaa7bb3ba418c25ee22e21738992340df2e7f13d2fbcc75735105ef521be5c1f8",
          "transactionIndex": "0x34",
          "logIndex": "0x36",
          "removed": false
        }
      ],
      "logsBloom": "0x04000000000000800800000000000000000000000000000000000000000000000000000000000001000000000000000000000000000000000000000000000000000000000000000000000008000000000000000080000020000000000000000000000000000000010000000000000000000000000000000800000010000000000000000000000000000000000000000000000000004000000000000020000000000400000000000000200100000010000000000000000004000000000000000000000002000800000000000000000000200000000000000000000000000000020080000000000000000000000000000000000000008000000000000080000000",
      "type": "0x2",
      "transactionHash": "0xaa7bb3ba418c25ee22e21738992340df2e7f13d2fbcc75735105ef521be5c1f8",
      "transactionIndex": "0x34",
      "blockHash": "0x680b2a6ac62a8156e541b53ce90456bb2196cd0de3157e6cfd99265d27494acd",
      "blockNumber": "0x985704",
      "gasUsed": "0x21e3d",
      "effectiveGasPrice": "0xf424a",
      "from": "0xdcc7ced9a0af57bde46c5fb5dce0163c23fc2e86",
      "to": "0xf6afe3b3eecf382706c3c262289997f95b4c0ca2",
      "contractAddress": null
    }
  ],
  "libraries": [],
  "pending": [],
  "returns": {},
  "timestamp": 1767614809904,
  "chain": 11155111,
  "commit": "769a3a5"
}