{
  "transactions": [
    {
      "hash": "0xe0bc9c3440cc8d5f2a3a74d21dd3ce44febf8951c04cb57d9190861be176d4b0",
      "transactionType": "CALL",
      "contractName": null,
      "contractAddress": "0x5d67d0efd22ab2aa718fa34a9b63330862b6482c",
      "function": "transfer(address,uint256)",
      "arguments": [
        "0xAc6eB4E9F8519DCb6819bDF84248F4901E5eFb6b",
        "50000000000000000000000000"
      ],
      "transaction": {
        "from": "0xdcc7ced9a0af57bde46c5fb5dce0163c23fc2e86",
        "to": "0x5d67d0efd22ab2aa718fa34a9b63330862b6482c",
        "gas": "0x14b79",
        "value": "0x0",
        "input": "0xa9059cbb000000000000000000000000ac6eb4e9f8519dcb6819bdf84248f4901e5efb6b000000000000000000000000000000000000000000295be96e64066972000000",
        "nonce": "0x9",
        "chainId": "0xaa36a7"
      },
      "additionalContracts": [],
      "isFixedGasLimit": false
    }
  ],
  "receipts": [
    {
      "status": "0x1",
      "cumulativeGasUsed": "0x5c2a42",
      "logs": [
        {
          "address": "0x5d67d0efd22ab2aa718fa34a9b63330862b6482c",
          "topics": [
            "0xddf252ad1be2c89b69c2b068fc378daa952ba7f163c4a11628f55a4df523b3ef",
            "0x000000000000000000000000dcc7ced9a0af57bde46c5fb5dce0163c23fc2e86",
            "0x000000000000000000000000ac6eb4e9f8519dcb6819bdf84248f4901e5efb6b"
          ],
          "data": "0x000000000000000000000000000000000000000000295be96e64066972000000",
          "blockHash": "0x6fac170e4d2316739a005112dcb8837f6ad29d92158f516301861dd4ee81bb04",
          "blockNumber": "0x946349",
          "blockTimestamp": "0x6929afd8",
          "transactionHash": "0xe0bc9c3440cc8d5f2a3a74d21dd3ce44febf8951c04cb57d9190861be176d4b0",
          "transactionIndex": "0x2b",
          "logIndex": "0x42",
          "removed": false
        }
      ],
      "logsBloom": "0x00000000000000000800000000000000004000000000000000000000000000000000000000000000000000000000000000000000000000010001000000000000000000000000000000000008000000000000000080000000000000000000000000000000000000000000000000000000000000000000000000000010000000000000000000000000000000000000000000000000000000000000000020000000000000000000000000000000000000000000000000000000000000000000000000000002000000000000000000000000200000000000000000000000000000020000000000000000000000000000000000000000000000000000000080000000",
      "type": "0x2",
      "transactionHash": "0xe0bc9c3440cc8d5f2a3a74d21dd3ce44febf8951c04cb57d9190861be176d4b0",
      "transactionIndex": "0x2b",
      "blockHash": "0x6fac170e4d2316739a005112dcb8837f6ad29d92158f516301861dd4ee81bb04",
      "blockNumber": "0x946349",
      "gasUsed": "0xeffc",
      "effectiveGasPrice": "0xf424a",
      "from": "0xdcc7ced9a0af57bde46c5fb5dce0163c23fc2e86",
      "to": "0x5d67d0efd22ab2aa718fa34a9b63330862b6482c",
      "contractAddress": null
    }
  ],
  "libraries": [],
  "pending": [],
  "returns": {},
  "timestamp": 1764339673763,
  "chain": 11155111,
  "commit": "785c6bc"
}