{
  "transactions": [
    {
      "hash": "0x151357a607bf54dbddd144f6892177d24ddaadc3655302866e0a47226ed34941",
      "transactionType": "CALL",
      "contractName": null,
      "contractAddress": "0x5d67d0efd22ab2aa718fa34a9b63330862b6482c",
      "function": "transfer(address,uint256)",
      "arguments": [
        "0xf6aFE3B3eECf382706C3c262289997f95b4c0CA2",
        "100000000000000000000000"
      ],
      "transaction": {
        "from": "0xdcc7ced9a0af57bde46c5fb5dce0163c23fc2e86",
        "to": "0x5d67d0efd22ab2aa718fa34a9b63330862b6482c",
        "gas": "0x14b79",
        "value": "0x0",
        "input": "0xa9059cbb000000000000000000000000f6afe3b3eecf382706c3c262289997f95b4c0ca200000000000000000000000000000000000000000000152d02c7e14af6800000",
        "nonce": "0x39",
        "chainId": "0xaa36a7"
      },
      "additionalContracts": [],
      "isFixedGasLimit": false
    }
  ],
  "receipts": [
    {
      "status": "0x1",
      "cumulativeGasUsed": "0xd74fb1",
      "logs": [
        {
          "address": "0x5d67d0efd22ab2aa718fa34a9b63330862b6482c",
          "topics": [
            "0xddf252ad1be2c89b69c2b068fc378daa952ba7f163c4a11628f55a4df523b3ef",
            "0x000000000000000000000000dcc7ced9a0af57bde46c5fb5dce0163c23fc2e86",
            "0x000000000000000000000000f6afe3b3eecf382706c3c262289997f95b4c0ca2"
          ],
          "data": "0x00000000000000000000000000000000000000000000152d02c7e14af6800000",
          "blockHash": "0x6e6f8df67500b17cfc8fa12f3ed5063e30e1befe19b64ae07c41f482da62dbe8",
          "blockNumber": "0x985700",
          "blockTimestamp": "0x695ba928",
          "transactionHash": "0x151357a607bf54dbddd144f6892177d24ddaadc3655302866e0a47226ed34941",
          "transactionIndex": "0x54",
          "logIndex": "0x9b",
          "removed": false
        }
      ],
      "logsBloom": "0x00000000000000800800000000000000000000000000000000000000000000000000000000000000000000000000000000000000000000000000000000000000000000000000000000000008000000000000000080000020000000000000000000000000000000000000000000000000000000000000000000000010000000000000000000000000000000000000000000000000000000000000000020000000000000000000000000000000000000000000000000000004000000000000000000000002000000000000000000000000200000000000000000000000000000020000000000000000000000000000000000000000000000000000000080000000",
      "type": "0x2",
      "transactionHash": "0x151357a607bf54dbddd144f6892177d24ddaadc3655302866e0a47226ed34941",
      "transactionIndex": "0x54",
      "blockHash": "0x6e6f8df67500b17cfc8fa12f3ed5063e30e1befe19b64ae07c41f482da62dbe8",
      "blockNumber": "0x985700",
      "gasUsed": "0xeffc",
      "effectiveGasPrice": "0xf4249",
      "from": "0xdcc7ced9a0af57bde46c5fb5dce0163c23fc2e86",
      "to": "0x5d67d0efd22ab2aa718fa34a9b63330862b6482c",
      "contractAddress": null
    }
  ],
  "libraries": [],
  "pending": [],
  "returns": {},
  "timestamp": 1767614761599,
  "chain": 11155111,
  "commit": "769a3a5"
}