{
  "transactions": [
    {
      "hash": "0xc5c2e98cea64dcfe9c1cb2fa47df0b5fed28084f7fea0087ba1178d84356b78d",
      "transactionType": "CALL",
      "contractName": null,
      "contractAddress": "0x5d67d0efd22ab2aa718fa34a9b63330862b6482c",
      "function": "transfer(address,uint256)",
      "arguments": [
        "0x9889cf81bb4bD51C0992183BFE837D3163971356",
        "100000000000000000000000"
      ],
      "transaction": {
        "from": "0xdcc7ced9a0af57bde46c5fb5dce0163c23fc2e86",
        "to": "0x5d67d0efd22ab2aa718fa34a9b63330862b6482c",
        "gas": "0x14b79",
        "value": "0x0",
        "input": "0xa9059cbb0000000000000000000000009889cf81bb4bd51c0992183bfe837d316397135600000000000000000000000000000000000000000000152d02c7e14af6800000",
        "nonce": "0x45",
        "chainId": "0xaa36a7"
      },
      "additionalContracts": [],
      "isFixedGasLimit": false
    }
  ],
  "receipts": [
    {
      "status": "0x1",
      "cumulativeGasUsed": "0x3880ae0",
      "logs": [
        {
          "address": "0x5d67d0efd22ab2aa718fa34a9b63330862b6482c",
          "topics": [
            "0xddf252ad1be2c89b69c2b068fc378daa952ba7f163c4a11628f55a4df523b3ef",
            "0x000000000000000000000000dcc7ced9a0af57bde46c5fb5dce0163c23fc2e86",
            "0x0000000000000000000000009889cf81bb4bd51c0992183bfe837d3163971356"
          ],
          "data": "0x00000000000000000000000000000000000000000000152d02c7e14af6800000",
          "blockHash": "0xcf0fcba09ad3d3365dc082f5e36c3c6aa0efb49bd245ce94fd2708abb7301bb7",
          "blockNumber": "0x9adb1e",
          "blockTimestamp": "0x697b5f7c",
          "transactionHash": "0xc5c2e98cea64dcfe9c1cb2fa47df0b5fed28084f7fea0087ba1178d84356b78d",
          "transactionIndex": "0x66",
          "logIndex": "0x57",
          "removed": false
        }
      ],
      "logsBloom": "0x00000000000000000800000000000000000000000000000000000000000000000000000000000000000000000000000000000000000000000000000000000000000000000000000000000008000000000000002080000000000000000000000000000000000000000000000000000000000000000000000000000010000000000000000000000000000000000000000000000000000000000000000020000000000000000000000000000000000000000000000000080000000000000000000000000002000000000000000000000000200000000000000000000000000000020000000000000000000000000000000800000000000000000000000080000000",
      "type": "0x2",
      "transactionHash": "0xc5c2e98cea64dcfe9c1cb2fa47df0b5fed28084f7fea0087ba1178d84356b78d",
      "transactionIndex": "0x66",
      "blockHash": "0xcf0fcba09ad3d3365dc082f5e36c3c6aa0efb49bd245ce94fd2708abb7301bb7",
      "blockNumber": "0x9adb1e",
      "gasUsed": "0xeffc",
      "effectiveGasPrice": "0x3a019cf5",
      "from": "0xdcc7ced9a0af57bde46c5fb5dce0163c23fc2e86",
      "to": "0x5d67d0efd22ab2aa718fa34a9b63330862b6482c",
      "contractAddress": null
    }
  ],
  "libraries": [],
  "pending": [],
  "returns": {},
  "timestamp": 1769693053662,
  "chain": 11155111,
  "commit": "6556123"
}