{
  "transactions": [
    {
      "hash": "0x39aeada7dc79ab74da771efc465a9ffd467d2059cdd23e3cb6d2d8514844ef5a",
      "transactionType": "CALL",
      "contractName": null,
      "contractAddress": "0xf6afe3b3eecf382706c3c262289997f95b4c0ca2",
      "function": "buyExactBNB(uint256)",
      "arguments": [
        "0"
      ],
      "transaction": {
        "from": "0xdcc7ced9a0af57bde46c5fb5dce0163c23fc2e86",
        "to": "0xf6afe3b3eecf382706c3c262289997f95b4c0ca2",
        "gas": "0x44801",
        "value": "0xe8d4a51000",
        "input": "0x3afc7a230000000000000000000000000000000000000000000000000000000000000000",
        "nonce": "0x36",
        "chainId": "0xaa36a7"
      },
      "additionalContracts": [],
      "isFixedGasLimit": false
    }
  ],
  "receipts": [
    {
      "status": "0x1",
      "cumulativeGasUsed": "0x1360b50",
      "logs": [
        {
          "address": "0xf6afe3b3eecf382706c3c262289997f95b4c0ca2",
          "topics": [
            "0x0d1a0d5e3d583a0e92588799dd06e50fd78c07daf05f0cc06d7b848b1ca445f1",
            "0x000000000000000000000000dcc7ced9a0af57bde46c5fb5dce0163c23fc2e86",
            "0x000000000000000000000000000000000000000000000000000000e8d4a51000",
            "0x000000000000000000000000000000000000000000000000af8bdaa9840de000"
          ],
          "data": "0x0000000000000000000000000000000000000000000000000000000000000000",
          "blockHash": "0x08a17b23a3574bbd6d7fc3848db46ca1ceaf6c160967aa1c5da64f7592612d5a",
          "blockNumber": "0x985346",
          "blockTimestamp": "0x695b7544",
          "transactionHash": "0x39aeada7dc79ab74da771efc465a9ffd467d2059cdd23e3cb6d2d8514844ef5a",
          "transactionIndex": "0x42",
          "logIndex": "0x6b",
          "removed": false
        }
      ],
      "logsBloom": "0x02000000000000000000000000000000000000000000000000000000000000000000000000000000000000000000000000000000000000000000000000000000000000000000000000000000000000000000000080000000000000000000000000000000000040010000000000000000000000000000000800000000000000000000000000000000000000000000000000000000000000000000000000000000000400004000000000000000000000000001000000000000000000100000004200040000000000000000000000000000000000800000000000000000000000020000000000000000000000000000000000000000000000000000000080000000",
      "type": "0x2",
      "transactionHash": "0x39aeada7dc79ab74da771efc465a9ffd467d2059cdd23e3cb6d2d8514844ef5a",
      "transactionIndex": "0x42",
      "blockHash": "0x08a17b23a3574bbd6d7fc3848db46ca1ceaf6c160967aa1c5da64f7592612d5a",
      "blockNumber": "0x985346",
      "gasUsed": "0x3197e",
      "effectiveGasPrice": "0x16e378",
      "from": "0xdcc7ced9a0af57bde46c5fb5dce0163c23fc2e86",
      "to": "0xf6afe3b3eecf382706c3c262289997f95b4c0ca2",
      "contractAddress": null
    }
  ],
  "libraries": [],
  "pending": [],
  "returns": {},
  "timestamp": 1767601477532,
  "chain": 11155111,
  "commit": "769a3a5"
}