{
  "transactions": [
    {
      "hash": "0x6842750d075a9913df0f96edd04a652ca291a922b67757059de8f5b3e78dc2da",
      "transactionType": "CALL",
      "contractName": null,
      "contractAddress": "0xf6afe3b3eecf382706c3c262289997f95b4c0ca2",
      "function": "buyExactMTX(uint256,uint256)",
      "arguments": [
        "1000000000000000000",
        "2"
      ],
      "transaction": {
        "from": "0xdcc7ced9a0af57bde46c5fb5dce0163c23fc2e86",
        "to": "0xf6afe3b3eecf382706c3c262289997f95b4c0ca2",
        "gas": "0x3691b",
        "value": "0x5af3107a4000",
        "input": "0x2291dc360000000000000000000000000000000000000000000000000de0b6b3a76400000000000000000000000000000000000000000000000000000000000000000002",
        "nonce": "0x38",
        "chainId": "0xaa36a7"
      },
      "additionalContracts": [],
      "isFixedGasLimit": false
    }
  ],
  "receipts": [
    {
      "status": "0x1",
      "cumulativeGasUsed": "0xc77a8f",
      "logs": [
        {
          "address": "0xf6afe3b3eecf382706c3c262289997f95b4c0ca2",
          "topics": [
            "0x0d1a0d5e3d583a0e92588799dd06e50fd78c07daf05f0cc06d7b848b1ca445f1",
            "0x000000000000000000000000dcc7ced9a0af57bde46c5fb5dce0163c23fc2e86",
            "0x00000000000000000000000000000000000000000000000000000019c4d9e95c",
            "0x0000000000000000000000000000000000000000000000000de0b6b3a7640000"
          ],
          "data": "0x0000000000000000000000000000000000000000000000000000000000000002",
          "blockHash": "0xac0f266bc62069db636f9349e8024a3bfc9bb0da7d754b1304dfc17de5c3fd5b",
          "blockNumber": "0x98536b",
          "blockTimestamp": "0x695b7754",
          "transactionHash": "0x6842750d075a9913df0f96edd04a652ca291a922b67757059de8f5b3e78dc2da",
          "transactionIndex": "0x31",
          "logIndex": "0x40",
          "removed": false
        }
      ],
      "logsBloom": "0x02000000000000000000000000000000000000000000000000000000000000000000000000000000000000000000000000000000000000000000000000000000000000000000000000000000000000000000000080000000000000000000000000000000000000010000000000000000000000000000000800000000000000000000000000000000000000000000000000000000004000000000000000000000000400000000000000000000000010000000000800000000000000000000004000000000000808000000000000020000000000800000000000000000000000020000000000000000000000000000000000000000000000000000000080000000",
      "type": "0x2",
      "transactionHash": "0x6842750d075a9913df0f96edd04a652ca291a922b67757059de8f5b3e78dc2da",
      "transactionIndex": "0x31",
      "blockHash": "0xac0f266bc62069db636f9349e8024a3bfc9bb0da7d754b1304dfc17de5c3fd5b",
      "blockNumber": "0x98536b",
      "gasUsed": "0x2781e",
      "effectiveGasPrice": "0x13d68a",
      "from": "0xdcc7ced9a0af57bde46c5fb5dce0163c23fc2e86",
      "to": "0xf6afe3b3eecf382706c3c262289997f95b4c0ca2",
      "contractAddress": null
    }
  ],
  "libraries": [],
  "pending": [],
  "returns": {},
  "timestamp": 1767602005070,
  "chain": 11155111,
  "commit": "769a3a5"
}