{
  "transactions": [
    {
      "hash": "0xf7b5011f455f6b2fb6c7396c3071c65bb382ff202b0188e11c644a726ad22c35",
      "transactionType": "CALL",
      "contractName": null,
      "contractAddress": "0xf6afe3b3eecf382706c3c262289997f95b4c0ca2",
      "function": "setPresaleEndTime(uint256)",
      "arguments": [
        "1767948480"
      ],
      "transaction": {
        "from": "0xdcc7ced9a0af57bde46c5fb5dce0163c23fc2e86",
        "to": "0xf6afe3b3eecf382706c3c262289997f95b4c0ca2",
        "gas": "0xe24b",
        "value": "0x0",
        "input": "0xcfa0136f000000000000000000000000000000000000000000000000000000006960c0c0",
        "nonce": "0x3e",
        "chainId": "0xaa36a7"
      },
      "additionalContracts": [],
      "isFixedGasLimit": false
    }
  ],
  "receipts": [
    {
      "status": "0x1",
      "cumulativeGasUsed": "0xb62168",
      "logs": [
        {
          "address": "0xf6afe3b3eecf382706c3c262289997f95b4c0ca2",
          "topics": [
            "0x73534f932c2fafd7244915975aa3c8c752784617902ffeb68bc6f6fbb42d65c8"
          ],
          "data": "0x00000000000000000000000000000000000000000000000000000000695e0758000000000000000000000000000000000000000000000000000000006960c0c0",
          "blockHash": "0x1a421987ed16030dc19b641eb988a67a0503f6e04605b0ff6e72a3ea66f1e7bc",
          "blockNumber": "0x9884f3",
          "blockTimestamp": "0x695e1dd8",
          "transactionHash": "0xf7b5011f455f6b2fb6c7396c3071c65bb382ff202b0188e11c644a726ad22c35",
          "transactionIndex": "0x76",
          "logIndex": "0x95",
          "removed": false
        }
      ],
      "logsBloom": "0x00000000000000000010000000000000000000000000000000000000000000000000000000000000000000000000000000000000000000000000000000000000000000000000000000000000008000000000000000000000000000000000000000000000000000010000040000000000000000000000000800000000000000000000000000000000000000000000000000000000000000000000000000000000000400000000000000000000000000000000000000000000000000000000000000000000000000000000000000000000000000000000000000000000000000000000000000000000000000000000000000000000000000000000000000000000",
      "type": "0x2",
      "transactionHash": "0xf7b5011f455f6b2fb6c7396c3071c65bb382ff202b0188e11c644a726ad22c35",
      "transactionIndex": "0x76",
      "blockHash": "0x1a421987ed16030dc19b641eb988a67a0503f6e04605b0ff6e72a3ea66f1e7bc",
      "blockNumber": "0x9884f3",
      "gasUsed": "0xa3d6",
      "effectiveGasPrice": "0xf4248",
      "from": "0xdcc7ced9a0af57bde46c5fb5dce0163c23fc2e86",
      "to": "0xf6afe3b3eecf382706c3c262289997f95b4c0ca2",
      "contractAddress": null
    }
  ],
  "libraries": [],
  "pending": [],
  "returns": {},
  "timestamp": 1767775705727,
  "chain": 11155111,
  "commit": "37ab890"
}