{
  "transactions": [
    {
      "hash": "0xf89148aa9f60a25f769b2b3bb53184fc6fa1fc307acfe8b82213533fc09ebe7b",
      "transactionType": "CALL",
      "contractName": null,
      "contractAddress": "0xf6afe3b3eecf382706c3c262289997f95b4c0ca2",
      "function": "updateLockModel(uint256,uint256,uint256,bool)",
      "arguments": [
        "2",
        "35000000000000000",
        "14400",
        "true"
      ],
      "transaction": {
        "from": "0xdcc7ced9a0af57bde46c5fb5dce0163c23fc2e86",
        "to": "0xf6afe3b3eecf382706c3c262289997f95b4c0ca2",
        "gas": "0x107e2",
        "value": "0x0",
        "input": "0xf9c3d6120000000000000000000000000000000000000000000000000000000000000002000000000000000000000000000000000000000000000000007c58508723800000000000000000000000000000000000000000000000000000000000000038400000000000000000000000000000000000000000000000000000000000000001",
        "nonce": "0x41",
        "chainId": "0xaa36a7"
      },
      "additionalContracts": [],
      "isFixedGasLimit": false
    }
  ],
  "receipts": [
    {
      "status": "0x1",
      "cumulativeGasUsed": "0x9c9723",
      "logs": [
        {
          "address": "0xf6afe3b3eecf382706c3c262289997f95b4c0ca2",
          "topics": [
            "0x83c42884bba1acf81c5ff4dfef197dc2afe80a415b994a2f60e87210e93db1bb",
            "0x0000000000000000000000000000000000000000000000000000000000000002",
            "0x000000000000000000000000000000000000000000000000007c585087238000",
            "0x0000000000000000000000000000000000000000000000000000000000003840"
          ],
          "data": "0x0000000000000000000000000000000000000000000000000000000000000001",
          "blockHash": "0x94723edd35e5daf17d5eb20dce20d14b28905cd10ce95052f94c41cd9c7ce0d9",
          "blockNumber": "0x988508",
          "blockTimestamp": "0x695e1f28",
          "transactionHash": "0xf89148aa9f60a25f769b2b3bb53184fc6fa1fc307acfe8b82213533fc09ebe7b",
          "transactionIndex": "0x64",
          "logIndex": "0x81",
          "removed": false
        }
      ],
      "logsBloom": "0x04000000000000000000000000000000000000000000000000000000000000000000000000000000000000000002000000000000000000000000000000000000000000000000000000000000000000000000000000000000000000000000000000000000000000010000001000000000000000000000000800000000000000000000000000000000000000000004000000000000000000000000000400000000000400000000000000000100000000000000000004000000000000000000000000000002000000000000000000000000000000000000000000000000080000000020000000000800000000000000000000000000008000000000000000000000",
      "type": "0x2",
      "transactionHash": "0xf89148aa9f60a25f769b2b3bb53184fc6fa1fc307acfe8b82213533fc09ebe7b",
      "transactionIndex": "0x64",
      "blockHash": "0x94723edd35e5daf17d5eb20dce20d14b28905cd10ce95052f94c41cd9c7ce0d9",
      "blockNumber": "0x988508",
      "gasUsed": "0xbf0d",
      "effectiveGasPrice": "0xf4248",
      "from": "0xdcc7ced9a0af57bde46c5fb5dce0163c23fc2e86",
      "to": "0xf6afe3b3eecf382706c3c262289997f95b4c0ca2",
      "contractAddress": null
    }
  ],
  "libraries": [],
  "pending": [],
  "returns": {},
  "timestamp": 1767776041668,
  "chain": 11155111,
  "commit": "37ab890"
}