{
  "transactions": [
    {
      "hash": "0x83b4fa4ec81ee3b1a12a83b68a86aa1f2a87c1e5ae7c6551c56f32db58d116f5",
      "transactionType": "CALL",
      "contractName": null,
      "contractAddress": "0x5d67d0efd22ab2aa718fa34a9b63330862b6482c",
      "function": "approve(address,uint256)",
      "arguments": [
        "0xe7A38d4d4D1ebc4e441f76a70AD7CE7a5D78531C",
        "1000000000000000000000000"
      ],
      "transaction": {
        "from": "0xdcc7ced9a0af57bde46c5fb5dce0163c23fc2e86",
        "to": "0x5d67d0efd22ab2aa718fa34a9b63330862b6482c",
        "gas": "0xf87e",
        "value": "0x0",
        "input": "0x095ea7b3000000000000000000000000e7a38d4d4d1ebc4e441f76a70ad7ce7a5d78531c00000000000000000000000000000000000000000000d3c21bcecceda1000000",
        "nonce": "0x34",
        "chainId": "0xaa36a7"
      },
      "additionalContracts": [],
      "isFixedGasLimit": false
    }
  ],
  "receipts": [
    {
      "status": "0x1",
      "cumulativeGasUsed": "0x3866ac",
      "logs": [
        {
          "address": "0x5d67d0efd22ab2aa718fa34a9b63330862b6482c",
          "topics": [
            "0x8c5be1e5ebec7d5bd14f71427d1e84f3dd0314c0f7b2291e5b200ac8c7c3b925",
            "0x000000000000000000000000dcc7ced9a0af57bde46c5fb5dce0163c23fc2e86",
            "0x000000000000000000000000e7a38d4d4d1ebc4e441f76a70ad7ce7a5d78531c"
          ],
          "data": "0x00000000000000000000000000000000000000000000d3c21bcecceda1000000",
          "blockHash": "0xedd65f700e200d65ca634d38a783b994a77731f6350fa3c56c8fa82ece377526",
          "blockNumber": "0x95ae9b",
          "blockTimestamp": "0x693954cc",
          "transactionHash": "0x83b4fa4ec81ee3b1a12a83b68a86aa1f2a87c1e5ae7c6551c56f32db58d116f5",
          "transactionIndex": "0x1a",
          "logIndex": "0x40",
          "removed": false
        }
      ],
      "logsBloom": "0x00000000000000000800000000000000000000000000000000000000000000000000000800004000004000000000000000000000000000000000000000200000000000000000000000000000000000000000000080000000000000000000000000000000000000000000000000000000000000000000000000000000000000000000000000000000000000000000000000000000000000000000000020000000020000000000000000000000000000000000000000000000000000000000000000000000000000000000000000000000200000000000000000000000000000020010000000000000000000000000000000000000000000000000000080000000",
      "type": "0x2",
      "transactionHash": "0x83b4fa4ec81ee3b1a12a83b68a86aa1f2a87c1e5ae7c6551c56f32db58d116f5",
      "transactionIndex": "0x1a",
      "blockHash": "0xedd65f700e200d65ca634d38a783b994a77731f6350fa3c56c8fa82ece377526",
      "blockNumber": "0x95ae9b",
      "gasUsed": "0xb3e8",
      "effectiveGasPrice": "0x10c8df",
      "from": "0xdcc7ced9a0af57bde46c5fb5dce0163c23fc2e86",
      "to": "0x5d67d0efd22ab2aa718fa34a9b63330862b6482c",
      "contractAddress": null
    }
  ],
  "libraries": [],
  "pending": [],
  "returns": {},
  "timestamp": 1765364940657,
  "chain": 11155111,
  "commit": "9e0228e"
}